{
  "contractName": "NFTimableContract",
  "abi": [
    {
      "inputs": [],
      "stateMutability": "nonpayable",
      "type": "constructor"
    },
    {
      "anonymous": false,
      "inputs": [
        {
          "indexed": true,
          "internalType": "address",
          "name": "account",
          "type": "address"
        },
        {
          "indexed": true,
          "internalType": "address",
          "name": "operator",
          "type": "address"
        },
        {
          "indexed": false,
          "internalType": "bool",
          "name": "approved",
          "type": "bool"
        }
      ],
      "name": "ApprovalForAll",
      "type": "event"
    },
    {
      "anonymous": false,
      "inputs": [
        {
          "indexed": false,
          "internalType": "uint256",
          "name": "id",
          "type": "uint256"
        },
        {
          "indexed": false,
          "internalType": "bool",
          "name": "activate",
          "type": "bool"
        }
      ],
      "name": "EventActivatedResellID",
      "type": "event"
    },
    {
      "anonymous": false,
      "inputs": [
        {
          "indexed": false,
          "internalType": "address",
          "name": "buyer",
          "type": "address"
        },
        {
          "indexed": false,
          "internalType": "uint256",
          "name": "id",
          "type": "uint256"
        },
        {
          "indexed": false,
          "internalType": "uint256",
          "name": "amountNFT",
          "type": "uint256"
        }
      ],
      "name": "EventBuyingCollectible",
      "type": "event"
    },
    {
      "anonymous": false,
      "inputs": [
        {
          "indexed": false,
          "internalType": "uint256",
          "name": "id",
          "type": "uint256"
        },
        {
          "indexed": false,
          "internalType": "uint256",
          "name": "nftPriceUnit",
          "type": "uint256"
        }
      ],
      "name": "EventCreatingCollectible",
      "type": "event"
    },
    {
      "anonymous": false,
      "inputs": [
        {
          "indexed": false,
          "internalType": "address",
          "name": "account",
          "type": "address"
        },
        {
          "indexed": false,
          "internalType": "address",
          "name": "operator",
          "type": "address"
        }
      ],
      "name": "EventIsApprovedForAll",
      "type": "event"
    },
    {
      "anonymous": false,
      "inputs": [
        {
          "indexed": false,
          "internalType": "address",
          "name": "seller",
          "type": "address"
        },
        {
          "indexed": false,
          "internalType": "uint256",
          "name": "id",
          "type": "uint256"
        },
        {
          "indexed": false,
          "internalType": "uint256",
          "name": "amountNFT",
          "type": "uint256"
        }
      ],
      "name": "EventResellCollectible",
      "type": "event"
    },
    {
      "anonymous": false,
      "inputs": [
        {
          "indexed": false,
          "internalType": "address",
          "name": "operator",
          "type": "address"
        },
        {
          "indexed": false,
          "internalType": "bool",
          "name": "approved",
          "type": "bool"
        }
      ],
      "name": "EventSetApprovalForAll",
      "type": "event"
    },
    {
      "anonymous": false,
      "inputs": [
        {
          "indexed": false,
          "internalType": "address",
          "name": "addressToTransfert",
          "type": "address"
        },
        {
          "indexed": false,
          "internalType": "uint256",
          "name": "amountToWithdraw",
          "type": "uint256"
        }
      ],
      "name": "EventTransferTo",
      "type": "event"
    },
    {
      "anonymous": false,
      "inputs": [
        {
          "indexed": false,
          "internalType": "address",
          "name": "addressWithdraw",
          "type": "address"
        },
        {
          "indexed": false,
          "internalType": "uint256",
          "name": "amount",
          "type": "uint256"
        }
      ],
      "name": "Eventwithdrawal",
      "type": "event"
    },
    {
      "anonymous": false,
      "inputs": [
        {
          "indexed": true,
          "internalType": "address",
          "name": "previousOwner",
          "type": "address"
        },
        {
          "indexed": true,
          "internalType": "address",
          "name": "newOwner",
          "type": "address"
        }
      ],
      "name": "OwnershipTransferred",
      "type": "event"
    },
    {
      "anonymous": false,
      "inputs": [
        {
          "indexed": true,
          "internalType": "address",
          "name": "operator",
          "type": "address"
        },
        {
          "indexed": true,
          "internalType": "address",
          "name": "from",
          "type": "address"
        },
        {
          "indexed": true,
          "internalType": "address",
          "name": "to",
          "type": "address"
        },
        {
          "indexed": false,
          "internalType": "uint256[]",
          "name": "ids",
          "type": "uint256[]"
        },
        {
          "indexed": false,
          "internalType": "uint256[]",
          "name": "values",
          "type": "uint256[]"
        }
      ],
      "name": "TransferBatch",
      "type": "event"
    },
    {
      "anonymous": false,
      "inputs": [
        {
          "indexed": true,
          "internalType": "address",
          "name": "operator",
          "type": "address"
        },
        {
          "indexed": true,
          "internalType": "address",
          "name": "from",
          "type": "address"
        },
        {
          "indexed": true,
          "internalType": "address",
          "name": "to",
          "type": "address"
        },
        {
          "indexed": false,
          "internalType": "uint256",
          "name": "id",
          "type": "uint256"
        },
        {
          "indexed": false,
          "internalType": "uint256",
          "name": "value",
          "type": "uint256"
        }
      ],
      "name": "TransferSingle",
      "type": "event"
    },
    {
      "anonymous": false,
      "inputs": [
        {
          "indexed": false,
          "internalType": "string",
          "name": "value",
          "type": "string"
        },
        {
          "indexed": true,
          "internalType": "uint256",
          "name": "id",
          "type": "uint256"
        }
      ],
      "name": "URI",
      "type": "event"
    },
    {
      "inputs": [
        {
          "internalType": "address",
          "name": "account",
          "type": "address"
        },
        {
          "internalType": "uint256",
          "name": "id",
          "type": "uint256"
        }
      ],
      "name": "balanceOf",
      "outputs": [
        {
          "internalType": "uint256",
          "name": "",
          "type": "uint256"
        }
      ],
      "stateMutability": "view",
      "type": "function",
      "constant": true
    },
    {
      "inputs": [
        {
          "internalType": "address[]",
          "name": "accounts",
          "type": "address[]"
        },
        {
          "internalType": "uint256[]",
          "name": "ids",
          "type": "uint256[]"
        }
      ],
      "name": "balanceOfBatch",
      "outputs": [
        {
          "internalType": "uint256[]",
          "name": "",
          "type": "uint256[]"
        }
      ],
      "stateMutability": "view",
      "type": "function",
      "constant": true
    },
    {
      "inputs": [
        {
          "internalType": "uint256",
          "name": "",
          "type": "uint256"
        }
      ],
      "name": "idResellActivate",
      "outputs": [
        {
          "internalType": "bool",
          "name": "",
          "type": "bool"
        }
      ],
      "stateMutability": "view",
      "type": "function",
      "constant": true
    },
    {
      "inputs": [
        {
          "internalType": "address",
          "name": "account",
          "type": "address"
        },
        {
          "internalType": "address",
          "name": "operator",
          "type": "address"
        }
      ],
      "name": "isApprovedForAll",
      "outputs": [
        {
          "internalType": "bool",
          "name": "",
          "type": "bool"
        }
      ],
      "stateMutability": "view",
      "type": "function",
      "constant": true
    },
    {
      "inputs": [
        {
          "internalType": "uint256",
          "name": "",
          "type": "uint256"
        }
      ],
      "name": "nftPriceUnitById",
      "outputs": [
        {
          "internalType": "uint256",
          "name": "",
          "type": "uint256"
        }
      ],
      "stateMutability": "view",
      "type": "function",
      "constant": true
    },
    {
      "inputs": [
        {
          "internalType": "address",
          "name": "",
          "type": "address"
        },
        {
          "internalType": "address",
          "name": "",
          "type": "address"
        },
        {
          "internalType": "uint256[]",
          "name": "",
          "type": "uint256[]"
        },
        {
          "internalType": "uint256[]",
          "name": "",
          "type": "uint256[]"
        },
        {
          "internalType": "bytes",
          "name": "",
          "type": "bytes"
        }
      ],
      "name": "onERC1155BatchReceived",
      "outputs": [
        {
          "internalType": "bytes4",
          "name": "",
          "type": "bytes4"
        }
      ],
      "stateMutability": "nonpayable",
      "type": "function"
    },
    {
      "inputs": [
        {
          "internalType": "address",
          "name": "",
          "type": "address"
        },
        {
          "internalType": "address",
          "name": "",
          "type": "address"
        },
        {
          "internalType": "uint256",
          "name": "",
          "type": "uint256"
        },
        {
          "internalType": "uint256",
          "name": "",
          "type": "uint256"
        },
        {
          "internalType": "bytes",
          "name": "",
          "type": "bytes"
        }
      ],
      "name": "onERC1155Received",
      "outputs": [
        {
          "internalType": "bytes4",
          "name": "",
          "type": "bytes4"
        }
      ],
      "stateMutability": "nonpayable",
      "type": "function"
    },
    {
      "inputs": [],
      "name": "owner",
      "outputs": [
        {
          "internalType": "address",
          "name": "",
          "type": "address"
        }
      ],
      "stateMutability": "view",
      "type": "function",
      "constant": true
    },
    {
      "inputs": [],
      "name": "renounceOwnership",
      "outputs": [],
      "stateMutability": "nonpayable",
      "type": "function"
    },
    {
      "inputs": [
        {
          "internalType": "address",
          "name": "from",
          "type": "address"
        },
        {
          "internalType": "address",
          "name": "to",
          "type": "address"
        },
        {
          "internalType": "uint256[]",
          "name": "ids",
          "type": "uint256[]"
        },
        {
          "internalType": "uint256[]",
          "name": "amounts",
          "type": "uint256[]"
        },
        {
          "internalType": "bytes",
          "name": "data",
          "type": "bytes"
        }
      ],
      "name": "safeBatchTransferFrom",
      "outputs": [],
      "stateMutability": "nonpayable",
      "type": "function"
    },
    {
      "inputs": [
        {
          "internalType": "address",
          "name": "from",
          "type": "address"
        },
        {
          "internalType": "address",
          "name": "to",
          "type": "address"
        },
        {
          "internalType": "uint256",
          "name": "id",
          "type": "uint256"
        },
        {
          "internalType": "uint256",
          "name": "amount",
          "type": "uint256"
        },
        {
          "internalType": "bytes",
          "name": "data",
          "type": "bytes"
        }
      ],
      "name": "safeTransferFrom",
      "outputs": [],
      "stateMutability": "nonpayable",
      "type": "function"
    },
    {
      "inputs": [
        {
          "internalType": "address",
          "name": "operator",
          "type": "address"
        },
        {
          "internalType": "bool",
          "name": "approved",
          "type": "bool"
        }
      ],
      "name": "setApprovalForAll",
      "outputs": [],
      "stateMutability": "nonpayable",
      "type": "function"
    },
    {
      "inputs": [
        {
          "internalType": "bytes4",
          "name": "interfaceId",
          "type": "bytes4"
        }
      ],
      "name": "supportsInterface",
      "outputs": [
        {
          "internalType": "bool",
          "name": "",
          "type": "bool"
        }
      ],
      "stateMutability": "view",
      "type": "function",
      "constant": true
    },
    {
      "inputs": [
        {
          "internalType": "address",
          "name": "newOwner",
          "type": "address"
        }
      ],
      "name": "transferOwnership",
      "outputs": [],
      "stateMutability": "nonpayable",
      "type": "function"
    },
    {
      "inputs": [
        {
          "internalType": "uint256",
          "name": "",
          "type": "uint256"
        }
      ],
      "name": "uri",
      "outputs": [
        {
          "internalType": "string",
          "name": "",
          "type": "string"
        }
      ],
      "stateMutability": "view",
      "type": "function",
      "constant": true
    },
    {
      "inputs": [
        {
          "internalType": "address",
          "name": "",
          "type": "address"
        }
      ],
      "name": "withdrawByAddress",
      "outputs": [
        {
          "internalType": "uint256",
          "name": "",
          "type": "uint256"
        }
      ],
      "stateMutability": "view",
      "type": "function",
      "constant": true
    },
    {
      "stateMutability": "payable",
      "type": "receive",
      "payable": true
    },
    {
      "inputs": [
        {
          "internalType": "uint256",
          "name": "id",
          "type": "uint256"
        },
        {
          "internalType": "uint256",
          "name": "amount",
          "type": "uint256"
        },
        {
          "internalType": "uint256",
          "name": "nftPriceUnit",
          "type": "uint256"
        }
      ],
      "name": "createCollectible",
      "outputs": [],
      "stateMutability": "nonpayable",
      "type": "function"
    },
    {
      "inputs": [
        {
          "internalType": "uint256",
          "name": "id",
          "type": "uint256"
        },
        {
          "internalType": "uint256",
          "name": "amountNFT",
          "type": "uint256"
        }
      ],
      "name": "buy",
      "outputs": [],
      "stateMutability": "payable",
      "type": "function",
      "payable": true
    },
    {
      "inputs": [
        {
          "internalType": "uint256",
          "name": "id",
          "type": "uint256"
        },
        {
          "internalType": "bool",
          "name": "activate",
          "type": "bool"
        }
      ],
      "name": "activateResellID",
      "outputs": [],
      "stateMutability": "nonpayable",
      "type": "function"
    },
    {
      "inputs": [
        {
          "internalType": "uint256",
          "name": "id",
          "type": "uint256"
        }
      ],
      "name": "isIdActivateForResell",
      "outputs": [
        {
          "internalType": "bool",
          "name": "",
          "type": "bool"
        }
      ],
      "stateMutability": "view",
      "type": "function",
      "constant": true
    },
    {
      "inputs": [
        {
          "internalType": "uint256",
          "name": "id",
          "type": "uint256"
        },
        {
          "internalType": "uint256",
          "name": "amountNFT",
          "type": "uint256"
        }
      ],
      "name": "reSell",
      "outputs": [],
      "stateMutability": "nonpayable",
      "type": "function"
    },
    {
      "inputs": [],
      "name": "withdraw",
      "outputs": [],
      "stateMutability": "nonpayable",
      "type": "function"
    },
    {
      "inputs": [
        {
          "internalType": "address payable",
          "name": "addressToTransfer",
          "type": "address"
        },
        {
          "internalType": "uint256",
          "name": "amountToWithdraw",
          "type": "uint256"
        }
      ],
      "name": "transferTo",
      "outputs": [],
      "stateMutability": "nonpayable",
      "type": "function"
    }
  ],
  "bytecode": "0x60806040523480156200001157600080fd5b506040518060600160405280602381526020016200445960239139620000696301ffc9a77c0100000000000000000000000000000000000000000000000000000000026200025c640100000000026401000000009004565b620000838162000381640100000000026401000000009004565b620000c063d9b67a267c0100000000000000000000000000000000000000000000000000000000026200025c640100000000026401000000009004565b620000fd630e89341c7c0100000000000000000000000000000000000000000000000000000000026200025c640100000000026401000000009004565b506200016063bc197c817c01000000000000000000000000000000000000000000000000000000000263f23a6e617c010000000000000000000000000000000000000000000000000000000002186200025c640100000000026401000000009004565b60006200017b6200039d640100000000026401000000009004565b905080600460006101000a81548173ffffffffffffffffffffffffffffffffffffffff021916908373ffffffffffffffffffffffffffffffffffffffff1602179055508073ffffffffffffffffffffffffffffffffffffffff16600073ffffffffffffffffffffffffffffffffffffffff167f8be0079c531659141344cd1fd0a4f28419497f9722a3daafe3b4186f6b6457e060405160405180910390a35060016005819055506200023c30620003a5640100000000026401000000009004565b60018060146101000a81548160ff02191690831515021790555062000498565b63ffffffff7c010000000000000000000000000000000000000000000000000000000002817bffffffffffffffffffffffffffffffffffffffffffffffffffffffff1916141562000315576040517f08c379a000000000000000000000000000000000000000000000000000000000815260040180806020018281038252601c8152602001807f4552433136353a20696e76616c696420696e746572666163652069640000000081525060200191505060405180910390fd5b6001600080837bffffffffffffffffffffffffffffffffffffffffffffffffffffffff19167bffffffffffffffffffffffffffffffffffffffffffffffffffffffff1916815260200190815260200160002060006101000a81548160ff02191690831515021790555050565b806003908051906020019062000399929190620003e9565b5050565b600033905090565b80600160006101000a81548173ffffffffffffffffffffffffffffffffffffffff021916908373ffffffffffffffffffffffffffffffffffffffff16021790555050565b828054600181600116156101000203166002900490600052602060002090601f016020900481019282601f106200042c57805160ff19168380011785556200045d565b828001600101855582156200045d579182015b828111156200045c5782518255916020019190600101906200043f565b5b5090506200046c919062000470565b5090565b6200049591905b808211156200049157600081600090555060010162000477565b5090565b90565b613fb180620004a86000396000f3fe608060405260043610610160576000357c0100000000000000000000000000000000000000000000000000000000900480638ffcf060116100d3578063d6febde81161008c578063d6febde814610c80578063e609c25614610cb8578063e985e9c514610d0b578063f23a6e6114610d94578063f242432a14610f02578063f2fde38b1461101e57610167565b80638ffcf06014610877578063a22cb465146108c6578063a319857c14610923578063b25d0edc1461096a578063bc197c81146109af578063c0d4175514610c3157610167565b80633ccfd60b116101255780633ccfd60b1461058c5780634e1273f4146105a35780636e2e824314610751578063715018a6146107b657806387cf7e26146107cd5780638da5cb5b1461082057610167565b8062fdd58e1461016c57806301ffc9a7146101db5780630e89341c1461024d5780632ccb1b30146103015780632eb2c2d61461035c57610167565b3661016757005b600080fd5b34801561017857600080fd5b506101c56004803603604081101561018f57600080fd5b81019080803573ffffffffffffffffffffffffffffffffffffffff1690602001909291908035906020019092919050505061106f565b6040518082815260200191505060405180910390f35b3480156101e757600080fd5b50610233600480360360208110156101fe57600080fd5b8101908080357bffffffffffffffffffffffffffffffffffffffffffffffffffffffff1916906020019092919050505061114f565b604051808215151515815260200191505060405180910390f35b34801561025957600080fd5b506102866004803603602081101561027057600080fd5b81019080803590602001909291905050506111b6565b6040518080602001828103825283818151815260200191508051906020019080838360005b838110156102c65780820151818401526020810190506102ab565b50505050905090810190601f1680156102f35780820380516001836020036101000a031916815260200191505b509250505060405180910390f35b34801561030d57600080fd5b5061035a6004803603604081101561032457600080fd5b81019080803573ffffffffffffffffffffffffffffffffffffffff1690602001909291908035906020019092919050505061125a565b005b34801561036857600080fd5b5061058a600480360360a081101561037f57600080fd5b81019080803573ffffffffffffffffffffffffffffffffffffffff169060200190929190803573ffffffffffffffffffffffffffffffffffffffff169060200190929190803590602001906401000000008111156103dc57600080fd5b8201836020820111156103ee57600080fd5b8035906020019184602083028401116401000000008311171561041057600080fd5b919080806020026020016040519081016040528093929190818152602001838360200280828437600081840152601f19601f8201169050808301925050505050505091929192908035906020019064010000000081111561047057600080fd5b82018360208201111561048257600080fd5b803590602001918460208302840111640100000000831117156104a457600080fd5b919080806020026020016040519081016040528093929190818152602001838360200280828437600081840152601f19601f8201169050808301925050505050505091929192908035906020019064010000000081111561050457600080fd5b82018360208201111561051657600080fd5b8035906020019184600183028401116401000000008311171561053857600080fd5b91908080601f016020809104026020016040519081016040528093929190818152602001838380828437600081840152601f19601f8201169050808301925050505050505091929192905050506114d2565b005b34801561059857600080fd5b506105a161199f565b005b3480156105af57600080fd5b506106fa600480360360408110156105c657600080fd5b81019080803590602001906401000000008111156105e357600080fd5b8201836020820111156105f557600080fd5b8035906020019184602083028401116401000000008311171561061757600080fd5b919080806020026020016040519081016040528093929190818152602001838360200280828437600081840152601f19601f8201169050808301925050505050505091929192908035906020019064010000000081111561067757600080fd5b82018360208201111561068957600080fd5b803590602001918460208302840111640100000000831117156106ab57600080fd5b919080806020026020016040519081016040528093929190818152602001838360200280828437600081840152601f19601f820116905080830192505050505050509192919290505050611cc9565b6040518080602001828103825283818151815260200191508051906020019060200280838360005b8381101561073d578082015181840152602081019050610722565b505050509050019250505060405180910390f35b34801561075d57600080fd5b506107a06004803603602081101561077457600080fd5b81019080803573ffffffffffffffffffffffffffffffffffffffff169060200190929190505050611ebe565b6040518082815260200191505060405180910390f35b3480156107c257600080fd5b506107cb611ed6565b005b3480156107d957600080fd5b50610806600480360360208110156107f057600080fd5b8101908080359060200190929190505050612061565b604051808215151515815260200191505060405180910390f35b34801561082c57600080fd5b5061083561208b565b604051808273ffffffffffffffffffffffffffffffffffffffff1673ffffffffffffffffffffffffffffffffffffffff16815260200191505060405180910390f35b34801561088357600080fd5b506108c46004803603606081101561089a57600080fd5b810190808035906020019092919080359060200190929190803590602001909291905050506120b5565b005b3480156108d257600080fd5b50610921600480360360408110156108e957600080fd5b81019080803573ffffffffffffffffffffffffffffffffffffffff1690602001909291908035151590602001909291905050506121f6565b005b34801561092f57600080fd5b506109686004803603604081101561094657600080fd5b81019080803590602001909291908035151590602001909291905050506122f5565b005b34801561097657600080fd5b506109ad6004803603604081101561098d57600080fd5b810190808035906020019092919080359060200190929190505050612431565b005b3480156109bb57600080fd5b50610bdd600480360360a08110156109d257600080fd5b81019080803573ffffffffffffffffffffffffffffffffffffffff169060200190929190803573ffffffffffffffffffffffffffffffffffffffff16906020019092919080359060200190640100000000811115610a2f57600080fd5b820183602082011115610a4157600080fd5b80359060200191846020830284011164010000000083111715610a6357600080fd5b919080806020026020016040519081016040528093929190818152602001838360200280828437600081840152601f19601f82011690508083019250505050505050919291929080359060200190640100000000811115610ac357600080fd5b820183602082011115610ad557600080fd5b80359060200191846020830284011164010000000083111715610af757600080fd5b919080806020026020016040519081016040528093929190818152602001838360200280828437600081840152601f19601f82011690508083019250505050505050919291929080359060200190640100000000811115610b5757600080fd5b820183602082011115610b6957600080fd5b80359060200191846001830284011164010000000083111715610b8b57600080fd5b91908080601f016020809104026020016040519081016040528093929190818152602001838380828437600081840152601f19601f8201169050808301925050505050505091929192905050506126a0565b60405180827bffffffffffffffffffffffffffffffffffffffffffffffffffffffff19167bffffffffffffffffffffffffffffffffffffffffffffffffffffffff1916815260200191505060405180910390f35b348015610c3d57600080fd5b50610c6a60048036036020811015610c5457600080fd5b81019080803590602001909291905050506126d1565b6040518082815260200191505060405180910390f35b610cb660048036036040811015610c9657600080fd5b8101908080359060200190929190803590602001909291905050506126e9565b005b348015610cc457600080fd5b50610cf160048036036020811015610cdb57600080fd5b8101908080359060200190929190505050612964565b604051808215151515815260200191505060405180910390f35b348015610d1757600080fd5b50610d7a60048036036040811015610d2e57600080fd5b81019080803573ffffffffffffffffffffffffffffffffffffffff169060200190929190803573ffffffffffffffffffffffffffffffffffffffff169060200190929190505050612984565b604051808215151515815260200191505060405180910390f35b348015610da057600080fd5b50610eae600480360360a0811015610db757600080fd5b81019080803573ffffffffffffffffffffffffffffffffffffffff169060200190929190803573ffffffffffffffffffffffffffffffffffffffff169060200190929190803590602001909291908035906020019092919080359060200190640100000000811115610e2857600080fd5b820183602082011115610e3a57600080fd5b80359060200191846001830284011164010000000083111715610e5c57600080fd5b91908080601f016020809104026020016040519081016040528093929190818152602001838380828437600081840152601f19601f820116905080830192505050505050509192919290505050612a37565b60405180827bffffffffffffffffffffffffffffffffffffffffffffffffffffffff19167bffffffffffffffffffffffffffffffffffffffffffffffffffffffff1916815260200191505060405180910390f35b348015610f0e57600080fd5b5061101c600480360360a0811015610f2557600080fd5b81019080803573ffffffffffffffffffffffffffffffffffffffff169060200190929190803573ffffffffffffffffffffffffffffffffffffffff169060200190929190803590602001909291908035906020019092919080359060200190640100000000811115610f9657600080fd5b820183602082011115610fa857600080fd5b80359060200191846001830284011164010000000083111715610fca57600080fd5b91908080601f016020809104026020016040519081016040528093929190818152602001838380828437600081840152601f19601f820116905080830192505050505050509192919290505050612a68565b005b34801561102a57600080fd5b5061106d6004803603602081101561104157600080fd5b81019080803573ffffffffffffffffffffffffffffffffffffffff169060200190929190505050612e1c565b005b60008073ffffffffffffffffffffffffffffffffffffffff168373ffffffffffffffffffffffffffffffffffffffff1614156110f6576040517f08c379a000000000000000000000000000000000000000000000000000000000815260040180806020018281038252602b815260200180613d6c602b913960400191505060405180910390fd5b6002600083815260200190815260200160002060008473ffffffffffffffffffffffffffffffffffffffff1673ffffffffffffffffffffffffffffffffffffffff16815260200190815260200160002054905092915050565b6000806000837bffffffffffffffffffffffffffffffffffffffffffffffffffffffff19167bffffffffffffffffffffffffffffffffffffffffffffffffffffffff1916815260200190815260200160002060009054906101000a900460ff169050919050565b606060038054600181600116156101000203166002900480601f01602080910402602001604051908101604052809291908181526020018280546001816001161561010002031660029004801561124e5780601f106112235761010080835404028352916020019161124e565b820191906000526020600020905b81548152906001019060200180831161123157829003601f168201915b50505050509050919050565b61126261302c565b73ffffffffffffffffffffffffffffffffffffffff16600460009054906101000a900473ffffffffffffffffffffffffffffffffffffffff1673ffffffffffffffffffffffffffffffffffffffff1614611324576040517f08c379a00000000000000000000000000000000000000000000000000000000081526004018080602001828103825260208152602001807f4f776e61626c653a2063616c6c6572206973206e6f7420746865206f776e657281525060200191505060405180910390fd5b6002600554141561139d576040517f08c379a000000000000000000000000000000000000000000000000000000000815260040180806020018281038252601f8152602001807f5265656e7472616e637947756172643a207265656e7472616e742063616c6c0081525060200191505060405180910390fd5b6002600581905550803073ffffffffffffffffffffffffffffffffffffffff163111611414576040517f08c379a000000000000000000000000000000000000000000000000000000000815260040180806020018281038252602b815260200180613d19602b913960400191505060405180910390fd5b8173ffffffffffffffffffffffffffffffffffffffff166108fc829081150290604051600060405180830381858888f1935050505015801561145a573d6000803e3d6000fd5b507fc62dc098f1e990cb7fddf45dc784b7bf80b1f8443ec2a2c3878f873d578236d68282604051808373ffffffffffffffffffffffffffffffffffffffff1673ffffffffffffffffffffffffffffffffffffffff1681526020018281526020019250505060405180910390a160016005819055505050565b815183511461152c576040517f08c379a0000000000000000000000000000000000000000000000000000000008152600401808060200182810382526028815260200180613f336028913960400191505060405180910390fd5b600073ffffffffffffffffffffffffffffffffffffffff168473ffffffffffffffffffffffffffffffffffffffff1614156115b2576040517f08c379a0000000000000000000000000000000000000000000000000000000008152600401808060200182810382526025815260200180613dee6025913960400191505060405180910390fd5b600160149054906101000a900460ff1615611635576040517f08c379a00000000000000000000000000000000000000000000000000000000081526004018080602001828103825260198152602001807f455243313135353a207472616e7366657274206c6f636b65640000000000000081525060200191505060405180910390fd5b61163f8585612984565b611694576040517f08c379a0000000000000000000000000000000000000000000000000000000008152600401808060200182810382526039815260200180613ea86039913960400191505060405180910390fd5b600061169e61302c565b90506116ae818787878787613034565b60008090505b84518110156118825760008582815181106116cb57fe5b6020026020010151905060008583815181106116e357fe5b6020026020010151905061176a816040518060600160405280602a8152602001613e5d602a91396002600086815260200190815260200160002060008d73ffffffffffffffffffffffffffffffffffffffff1673ffffffffffffffffffffffffffffffffffffffff1681526020019081526020016000205461303c9092919063ffffffff16565b6002600084815260200190815260200160002060008b73ffffffffffffffffffffffffffffffffffffffff1673ffffffffffffffffffffffffffffffffffffffff16815260200190815260200160002081905550611821816002600085815260200190815260200160002060008b73ffffffffffffffffffffffffffffffffffffffff1673ffffffffffffffffffffffffffffffffffffffff168152602001908152602001600020546130fc90919063ffffffff16565b6002600084815260200190815260200160002060008a73ffffffffffffffffffffffffffffffffffffffff1673ffffffffffffffffffffffffffffffffffffffff1681526020019081526020016000208190555050508060010190506116b4565b508473ffffffffffffffffffffffffffffffffffffffff168673ffffffffffffffffffffffffffffffffffffffff168273ffffffffffffffffffffffffffffffffffffffff167f4a39dc06d4c0dbc64b70af90fd698a233a518aa5d07e595d983b8c0526c8f7fb8787604051808060200180602001838103835285818151815260200191508051906020019060200280838360005b83811015611932578082015181840152602081019050611917565b50505050905001838103825284818151815260200191508051906020019060200280838360005b83811015611974578082015181840152602081019050611959565b5050505090500194505050505060405180910390a4611997818787878787613184565b505050505050565b60026005541415611a18576040517f08c379a000000000000000000000000000000000000000000000000000000000815260040180806020018281038252601f8152602001807f5265656e7472616e637947756172643a207265656e7472616e742063616c6c0081525060200191505060405180910390fd5b60026005819055506000600860003373ffffffffffffffffffffffffffffffffffffffff1673ffffffffffffffffffffffffffffffffffffffff1681526020019081526020016000205411611ad5576040517f08c379a000000000000000000000000000000000000000000000000000000000815260040180806020018281038252601b8152602001807f4e4654494d41424c453a4e6f7468696e6720746f20726566756e64000000000081525060200191505060405180910390fd5b600860003373ffffffffffffffffffffffffffffffffffffffff1673ffffffffffffffffffffffffffffffffffffffff168152602001908152602001600020543073ffffffffffffffffffffffffffffffffffffffff163111611b83576040517f08c379a0000000000000000000000000000000000000000000000000000000008152600401808060200182810382526028815260200180613e136028913960400191505060405180910390fd5b6000600860003373ffffffffffffffffffffffffffffffffffffffff1673ffffffffffffffffffffffffffffffffffffffff1681526020019081526020016000205490503373ffffffffffffffffffffffffffffffffffffffff166108fc829081150290604051600060405180830381858888f19350505050158015611c0d573d6000803e3d6000fd5b506000600860003373ffffffffffffffffffffffffffffffffffffffff1673ffffffffffffffffffffffffffffffffffffffff168152602001908152602001600020819055507f7be99e5e1c1512e809154f5037ad8062bd6721248a9a469885311198f06ab4b63382604051808373ffffffffffffffffffffffffffffffffffffffff1673ffffffffffffffffffffffffffffffffffffffff1681526020018281526020019250505060405180910390a1506001600581905550565b60608151835114611d25576040517f08c379a0000000000000000000000000000000000000000000000000000000008152600401808060200182810382526029815260200180613f0a6029913960400191505060405180910390fd5b6060835167ffffffffffffffff81118015611d3f57600080fd5b50604051908082528060200260200182016040528015611d6e5781602001602082028036833780820191505090505b50905060008090505b8451811015611eb357600073ffffffffffffffffffffffffffffffffffffffff16858281518110611da457fe5b602002602001015173ffffffffffffffffffffffffffffffffffffffff161415611e19576040517f08c379a0000000000000000000000000000000000000000000000000000000008152600401808060200182810382526031815260200180613d976031913960400191505060405180910390fd5b60026000858381518110611e2957fe5b602002602001015181526020019081526020016000206000868381518110611e4d57fe5b602002602001015173ffffffffffffffffffffffffffffffffffffffff1673ffffffffffffffffffffffffffffffffffffffff16815260200190815260200160002054828281518110611e9c57fe5b602002602001018181525050806001019050611d77565b508091505092915050565b60086020528060005260406000206000915090505481565b611ede61302c565b73ffffffffffffffffffffffffffffffffffffffff16600460009054906101000a900473ffffffffffffffffffffffffffffffffffffffff1673ffffffffffffffffffffffffffffffffffffffff1614611fa0576040517f08c379a00000000000000000000000000000000000000000000000000000000081526004018080602001828103825260208152602001807f4f776e61626c653a2063616c6c6572206973206e6f7420746865206f776e657281525060200191505060405180910390fd5b600073ffffffffffffffffffffffffffffffffffffffff16600460009054906101000a900473ffffffffffffffffffffffffffffffffffffffff1673ffffffffffffffffffffffffffffffffffffffff167f8be0079c531659141344cd1fd0a4f28419497f9722a3daafe3b4186f6b6457e060405160405180910390a36000600460006101000a81548173ffffffffffffffffffffffffffffffffffffffff021916908373ffffffffffffffffffffffffffffffffffffffff160217905550565b60006007600083815260200190815260200160002060009054906101000a900460ff169050919050565b6000600460009054906101000a900473ffffffffffffffffffffffffffffffffffffffff16905090565b6120bd61302c565b73ffffffffffffffffffffffffffffffffffffffff16600460009054906101000a900473ffffffffffffffffffffffffffffffffffffffff1673ffffffffffffffffffffffffffffffffffffffff161461217f576040517f08c379a00000000000000000000000000000000000000000000000000000000081526004018080602001828103825260208152602001807f4f776e61626c653a2063616c6c6572206973206e6f7420746865206f776e657281525060200191505060405180910390fd5b8060066000858152602001908152602001600020819055506121b230848460405180602001604052806000815250613577565b7fa87937ec8f73a0fac2e15bd16c880785012b1e579d3bdefeab0ce5cae734d04d8382604051808381526020018281526020019250505060405180910390a1505050565b8173ffffffffffffffffffffffffffffffffffffffff1661221561302c565b73ffffffffffffffffffffffffffffffffffffffff161415612282576040517f08c379a0000000000000000000000000000000000000000000000000000000008152600401808060200182810382526029815260200180613ee16029913960400191505060405180910390fd5b7fba3930b875d3d48ad46e756dd9a81af322e3ab0568664a7faeafb42955c959c58282604051808373ffffffffffffffffffffffffffffffffffffffff1673ffffffffffffffffffffffffffffffffffffffff168152602001821515151581526020019250505060405180910390a15050565b6122fd61302c565b73ffffffffffffffffffffffffffffffffffffffff16600460009054906101000a900473ffffffffffffffffffffffffffffffffffffffff1673ffffffffffffffffffffffffffffffffffffffff16146123bf576040517f08c379a00000000000000000000000000000000000000000000000000000000081526004018080602001828103825260208152602001807f4f776e61626c653a2063616c6c6572206973206e6f7420746865206f776e657281525060200191505060405180910390fd5b806007600084815260200190815260200160002060006101000a81548160ff0219169083151502179055507f4eea1c5c179c6eeba273a8ea605b9a0c49db411edbd049bf88140f2f72996a96828260405180838152602001821515151581526020019250505060405180910390a15050565b600260055414156124aa576040517f08c379a000000000000000000000000000000000000000000000000000000000815260040180806020018281038252601f8152602001807f5265656e7472616e637947756172643a207265656e7472616e742063616c6c0081525060200191505060405180910390fd5b60026005819055506124bb82612061565b612510576040517f08c379a0000000000000000000000000000000000000000000000000000000008152600401808060200182810382526022815260200180613e3b6022913960400191505060405180910390fd5b6000600160146101000a81548160ff0219169083151502179055506125473330848460405180602001604052806000815250612a68565b60018060146101000a81548160ff021916908315150217905550600061258982600660008681526020019081526020016000205461377a90919063ffffffff16565b90506125dd81600860003373ffffffffffffffffffffffffffffffffffffffff1673ffffffffffffffffffffffffffffffffffffffff168152602001908152602001600020546130fc90919063ffffffff16565b600860003373ffffffffffffffffffffffffffffffffffffffff1673ffffffffffffffffffffffffffffffffffffffff168152602001908152602001600020819055507fce7a807a1e0115a7ef95cf5e6683bb3850fd0a398819bfab44e8fe1ae204ad7b338484604051808473ffffffffffffffffffffffffffffffffffffffff1673ffffffffffffffffffffffffffffffffffffffff168152602001838152602001828152602001935050505060405180910390a15060016005819055505050565b600063bc197c817c010000000000000000000000000000000000000000000000000000000002905095945050505050565b60066020528060005260406000206000915090505481565b60026005541415612762576040517f08c379a000000000000000000000000000000000000000000000000000000000815260040180806020018281038252601f8152602001807f5265656e7472616e637947756172643a207265656e7472616e742063616c6c0081525060200191505060405180910390fd5b60026005819055506000600660008481526020019081526020016000205414156127f4576040517f08c379a000000000000000000000000000000000000000000000000000000000815260040180806020018281038252601d8152602001807f4e4654494d41424c453a507269636520646f65736e277420657869737400000081525060200191505060405180910390fd5b600061281c82600660008681526020019081526020016000205461377a90919063ffffffff16565b9050803414612893576040517f08c379a000000000000000000000000000000000000000000000000000000000815260040180806020018281038252601c8152602001807f4e4654494d41424c453a4e6f7420656e6f7567687420616d6f756e740000000081525060200191505060405180910390fd5b6000600160146101000a81548160ff0219169083151502179055506128ca3033858560405180602001604052806000815250612a68565b60018060146101000a81548160ff0219169083151502179055507f30248fc08a3bedc85dad3b98281d61202cee81dd7723576523704eaedadca0c7338484604051808473ffffffffffffffffffffffffffffffffffffffff1673ffffffffffffffffffffffffffffffffffffffff168152602001838152602001828152602001935050505060405180910390a15060016005819055505050565b60076020528060005260406000206000915054906101000a900460ff1681565b6000600160009054906101000a900473ffffffffffffffffffffffffffffffffffffffff1673ffffffffffffffffffffffffffffffffffffffff168373ffffffffffffffffffffffffffffffffffffffff161480612a2f5750600160009054906101000a900473ffffffffffffffffffffffffffffffffffffffff1673ffffffffffffffffffffffffffffffffffffffff168273ffffffffffffffffffffffffffffffffffffffff16145b905092915050565b600063f23a6e617c010000000000000000000000000000000000000000000000000000000002905095945050505050565b600073ffffffffffffffffffffffffffffffffffffffff168473ffffffffffffffffffffffffffffffffffffffff161415612aee576040517f08c379a0000000000000000000000000000000000000000000000000000000008152600401808060200182810382526025815260200180613dee6025913960400191505060405180910390fd5b600160149054906101000a900460ff1615612b71576040517f08c379a00000000000000000000000000000000000000000000000000000000081526004018080602001828103825260198152602001807f455243313135353a207472616e7366657274206c6f636b65640000000000000081525060200191505060405180910390fd5b612b7b8585612984565b612bd0576040517f08c379a0000000000000000000000000000000000000000000000000000000008152600401808060200182810382526039815260200180613ea86039913960400191505060405180910390fd5b6000612bda61302c565b9050612bfa818787612beb88613800565b612bf488613800565b87613034565b612c77836040518060600160405280602a8152602001613e5d602a91396002600088815260200190815260200160002060008a73ffffffffffffffffffffffffffffffffffffffff1673ffffffffffffffffffffffffffffffffffffffff1681526020019081526020016000205461303c9092919063ffffffff16565b6002600086815260200190815260200160002060008873ffffffffffffffffffffffffffffffffffffffff1673ffffffffffffffffffffffffffffffffffffffff16815260200190815260200160002081905550612d2e836002600087815260200190815260200160002060008873ffffffffffffffffffffffffffffffffffffffff1673ffffffffffffffffffffffffffffffffffffffff168152602001908152602001600020546130fc90919063ffffffff16565b6002600086815260200190815260200160002060008773ffffffffffffffffffffffffffffffffffffffff1673ffffffffffffffffffffffffffffffffffffffff168152602001908152602001600020819055508473ffffffffffffffffffffffffffffffffffffffff168673ffffffffffffffffffffffffffffffffffffffff168273ffffffffffffffffffffffffffffffffffffffff167fc3d58168c5ae7397731d063d5bbf3d657854427343f4c083240f7aacaa2d0f628787604051808381526020018281526020019250505060405180910390a4612e14818787878787613870565b505050505050565b612e2461302c565b73ffffffffffffffffffffffffffffffffffffffff16600460009054906101000a900473ffffffffffffffffffffffffffffffffffffffff1673ffffffffffffffffffffffffffffffffffffffff1614612ee6576040517f08c379a00000000000000000000000000000000000000000000000000000000081526004018080602001828103825260208152602001807f4f776e61626c653a2063616c6c6572206973206e6f7420746865206f776e657281525060200191505060405180910390fd5b600073ffffffffffffffffffffffffffffffffffffffff168173ffffffffffffffffffffffffffffffffffffffff161415612f6c576040517f08c379a0000000000000000000000000000000000000000000000000000000008152600401808060200182810382526026815260200180613dc86026913960400191505060405180910390fd5b8073ffffffffffffffffffffffffffffffffffffffff16600460009054906101000a900473ffffffffffffffffffffffffffffffffffffffff1673ffffffffffffffffffffffffffffffffffffffff167f8be0079c531659141344cd1fd0a4f28419497f9722a3daafe3b4186f6b6457e060405160405180910390a380600460006101000a81548173ffffffffffffffffffffffffffffffffffffffff021916908373ffffffffffffffffffffffffffffffffffffffff16021790555050565b600033905090565b505050505050565b60008383111582906130e9576040517f08c379a00000000000000000000000000000000000000000000000000000000081526004018080602001828103825283818151815260200191508051906020019080838360005b838110156130ae578082015181840152602081019050613093565b50505050905090810190601f1680156130db5780820380516001836020036101000a031916815260200191505b509250505060405180910390fd5b5060008385039050809150509392505050565b60008082840190508381101561317a576040517f08c379a000000000000000000000000000000000000000000000000000000000815260040180806020018281038252601b8152602001807f536166654d6174683a206164646974696f6e206f766572666c6f77000000000081525060200191505060405180910390fd5b8091505092915050565b6131a38473ffffffffffffffffffffffffffffffffffffffff16613be1565b1561356f578373ffffffffffffffffffffffffffffffffffffffff1663bc197c8187878686866040518663ffffffff167c0100000000000000000000000000000000000000000000000000000000028152600401808673ffffffffffffffffffffffffffffffffffffffff1673ffffffffffffffffffffffffffffffffffffffff1681526020018573ffffffffffffffffffffffffffffffffffffffff1673ffffffffffffffffffffffffffffffffffffffff168152602001806020018060200180602001848103845287818151815260200191508051906020019060200280838360005b838110156132a3578082015181840152602081019050613288565b50505050905001848103835286818151815260200191508051906020019060200280838360005b838110156132e55780820151818401526020810190506132ca565b50505050905001848103825285818151815260200191508051906020019080838360005b83811015613324578082015181840152602081019050613309565b50505050905090810190601f1680156133515780820380516001836020036101000a031916815260200191505b5098505050505050505050602060405180830381600087803b15801561337657600080fd5b505af19250505080156133aa57506040513d602081101561339657600080fd5b810190808051906020019092919050505060015b6134b4576133b6613c2e565b806133c15750613463565b806040517f08c379a00000000000000000000000000000000000000000000000000000000081526004018080602001828103825283818151815260200191508051906020019080838360005b8381101561342857808201518184015260208101905061340d565b50505050905090810190601f1680156134555780820380516001836020036101000a031916815260200191505b509250505060405180910390fd5b6040517f08c379a0000000000000000000000000000000000000000000000000000000008152600401808060200182810382526034815260200180613ce56034913960400191505060405180910390fd5b63bc197c817c0100000000000000000000000000000000000000000000000000000000027bffffffffffffffffffffffffffffffffffffffffffffffffffffffff1916817bffffffffffffffffffffffffffffffffffffffffffffffffffffffff19161461356d576040517f08c379a0000000000000000000000000000000000000000000000000000000008152600401808060200182810382526028815260200180613d446028913960400191505060405180910390fd5b505b505050505050565b600073ffffffffffffffffffffffffffffffffffffffff168473ffffffffffffffffffffffffffffffffffffffff1614156135fd576040517f08c379a0000000000000000000000000000000000000000000000000000000008152600401808060200182810382526021815260200180613f5b6021913960400191505060405180910390fd5b600061360761302c565b90506136288160008761361988613800565b61362288613800565b87613034565b61368b836002600087815260200190815260200160002060008873ffffffffffffffffffffffffffffffffffffffff1673ffffffffffffffffffffffffffffffffffffffff168152602001908152602001600020546130fc90919063ffffffff16565b6002600086815260200190815260200160002060008773ffffffffffffffffffffffffffffffffffffffff1673ffffffffffffffffffffffffffffffffffffffff168152602001908152602001600020819055508473ffffffffffffffffffffffffffffffffffffffff16600073ffffffffffffffffffffffffffffffffffffffff168273ffffffffffffffffffffffffffffffffffffffff167fc3d58168c5ae7397731d063d5bbf3d657854427343f4c083240f7aacaa2d0f628787604051808381526020018281526020019250505060405180910390a461377381600087878787613870565b5050505050565b60008083141561378d57600090506137fa565b600082840290508284828161379e57fe5b04146137f5576040517f08c379a0000000000000000000000000000000000000000000000000000000008152600401808060200182810382526021815260200180613e876021913960400191505060405180910390fd5b809150505b92915050565b606080600167ffffffffffffffff8111801561381b57600080fd5b5060405190808252806020026020018201604052801561384a5781602001602082028036833780820191505090505b509050828160008151811061385b57fe5b60200260200101818152505080915050919050565b61388f8473ffffffffffffffffffffffffffffffffffffffff16613be1565b15613bd9578373ffffffffffffffffffffffffffffffffffffffff1663f23a6e6187878686866040518663ffffffff167c0100000000000000000000000000000000000000000000000000000000028152600401808673ffffffffffffffffffffffffffffffffffffffff1673ffffffffffffffffffffffffffffffffffffffff1681526020018573ffffffffffffffffffffffffffffffffffffffff1673ffffffffffffffffffffffffffffffffffffffff16815260200184815260200183815260200180602001828103825283818151815260200191508051906020019080838360005b83811015613990578082015181840152602081019050613975565b50505050905090810190601f1680156139bd5780820380516001836020036101000a031916815260200191505b509650505050505050602060405180830381600087803b1580156139e057600080fd5b505af1925050508015613a1457506040513d6020811015613a0057600080fd5b810190808051906020019092919050505060015b613b1e57613a20613c2e565b80613a2b5750613acd565b806040517f08c379a00000000000000000000000000000000000000000000000000000000081526004018080602001828103825283818151815260200191508051906020019080838360005b83811015613a92578082015181840152602081019050613a77565b50505050905090810190601f168015613abf5780820380516001836020036101000a031916815260200191505b509250505060405180910390fd5b6040517f08c379a0000000000000000000000000000000000000000000000000000000008152600401808060200182810382526034815260200180613ce56034913960400191505060405180910390fd5b63f23a6e617c0100000000000000000000000000000000000000000000000000000000027bffffffffffffffffffffffffffffffffffffffffffffffffffffffff1916817bffffffffffffffffffffffffffffffffffffffffffffffffffffffff191614613bd7576040517f08c379a0000000000000000000000000000000000000000000000000000000008152600401808060200182810382526028815260200180613d446028913960400191505060405180910390fd5b505b505050505050565b600080823b905060008111915050919050565b6000601f19601f8301169050919050565b60007c010000000000000000000000000000000000000000000000000000000082049050919050565b600060443d1015613c3e57613ce1565b60046000803e613c4f600051613c05565b6308c379a08114613c605750613ce1565b60405160043d036004823e80513d602482011167ffffffffffffffff82111715613c8c57505050613ce1565b808201805167ffffffffffffffff811115613cab575050505050613ce1565b8060208301013d8501811115613cc657505050505050613ce1565b613ccf82613bf4565b60208401016040528296505050505050505b9056fe455243313135353a207472616e7366657220746f206e6f6e2045524331313535526563656976657220696d706c656d656e7465724e4654494d41424c453a4e6f7420656e6f7567687420616d6f756e7420746f207472616e7366657274546f455243313135353a204552433131353552656365697665722072656a656374656420746f6b656e73455243313135353a2062616c616e636520717565727920666f7220746865207a65726f2061646472657373455243313135353a2062617463682062616c616e636520717565727920666f7220746865207a65726f20616464726573734f776e61626c653a206e6577206f776e657220697320746865207a65726f2061646472657373455243313135353a207472616e7366657220746f20746865207a65726f20616464726573734e4654494d41424c453a4e6f7420656e6f7567687420616d6f756e7420746f2077697468647261774e4654494d41424c453a526573656c6c206e6f742061637469766174656420776574455243313135353a20696e73756666696369656e742062616c616e636520666f72207472616e73666572536166654d6174683a206d756c7469706c69636174696f6e206f766572666c6f7745524331313535204e4654494d4d41424c453a206f6e6c79207472616e736665727420666f72206f7220746f2074686520636f6e7472616374455243313135353a2073657474696e6720617070726f76616c2073746174757320666f722073656c66455243313135353a206163636f756e747320616e6420696473206c656e677468206d69736d61746368455243313135353a2069647320616e6420616d6f756e7473206c656e677468206d69736d61746368455243313135353a206d696e7420746f20746865207a65726f2061646472657373a26469706673582212206655ee9cf37eeba8302dc0e0d1fd7c170cccee6ff135a86edbe3e3a83f3a939564736f6c634300060b003368747470733a2f2f6e6674696d61626c652e636f6d2f6e66742f7b69647d2e6a736f6e",
  "immutableReferences": {},
  "source": "// SPDX-License-Identifier: MIT\npragma solidity ^0.6.0;\n\nimport \"./ERC1155NFTimable.sol\";\nimport \"@openzeppelin/contracts/token/ERC1155/ERC1155Holder.sol\";\nimport \"@openzeppelin/contracts/access/Ownable.sol\";\nimport \"@openzeppelin/contracts/utils/ReentrancyGuard.sol\";\nimport \"@openzeppelin/contracts/math/SafeMath.sol\";\n\n\ncontract NFTimableContract is ERC1155NFTimable, ERC1155Holder, Ownable, ReentrancyGuard{\n\n    using SafeMath for uint256;\n\n    //When creating collectible\n    event EventCreatingCollectible(uint256 id, uint256 nftPriceUnit);\n\n    //when customer bought a NFT\n    event EventBuyingCollectible(address buyer, uint256 id,uint256 amountNFT);\n\n    //when the customer resells a NFT\n    event EventResellCollectible(address seller, uint256 id,uint256 amountNFT);\n\n    //When owner activate the resell\n    event EventActivatedResellID(uint256 id,bool activate);\n\n    //When customer withdraw after resell\n    event Eventwithdrawal(address addressWithdraw,uint256 amount);\n\n    //When transfert from contract to adress\n    event EventTransferTo(address addressToTransfert, uint256 amountToWithdraw);\n\n    //Mapping from NFTid to NFTPrice in ETH\n    mapping(uint256=>uint256) public nftPriceUnitById;\n\n    //Collection activating for resell\n    mapping(uint256=>bool) public idResellActivate;\n\n    //Withdraw address=>ammount in eth\n    mapping(address=>uint256) public withdrawByAddress;\n\n    constructor() public ERC1155NFTimable(\"https://nftimable.com/nft/{id}.json\") {\n        setOwnerNFT(address(this));\n        lockedTransfert=true;\n    }\n\n    /**\n     * @dev Create NFT with id and amount\n     */\n    function createCollectible(uint256 id, uint256 amount, uint256 nftPriceUnit) public onlyOwner{\n        nftPriceUnitById[id]=nftPriceUnit;\n        _mint(address(this), id, amount, \"\");\n        emit EventCreatingCollectible(id,nftPriceUnit);\n    }\n\n    /**\n     * Buy collectible \n     */\n    function buy(uint256 id, uint256 amountNFT) public payable nonReentrant{\n\n        // emit EventControl(owner(), msg.sender);\n        require(nftPriceUnitById[id]!=0,\"NFTIMABLE:Price doesn't exist\");\n        uint256 price = nftPriceUnitById[id].mul(amountNFT);\n\n        require(msg.value==price,\"NFTIMABLE:Not enought amount\");\n\n        lockedTransfert=false;\n        safeTransferFrom(address(this), msg.sender, id, amountNFT, \"\");\n        lockedTransfert=true;\n\n        emit EventBuyingCollectible(msg.sender, id, amountNFT);\n\n    }\n\n    //activate collection for resell\n    function activateResellID(uint256 id, bool activate) public onlyOwner{\n        idResellActivate[id]=activate;\n        emit EventActivatedResellID(id,activate);\n    }\n\n    //check if collection open to resell\n    function isIdActivateForResell(uint256 id) public view returns (bool){\n        return idResellActivate[id];\n    }\n\n    //Customer want to resell NFT\n    function reSell(uint256 id, uint256 amountNFT) public nonReentrant {\n        require(isIdActivateForResell(id),\"NFTIMABLE:Resell not activated wet\");\n        \n        lockedTransfert=false;\n        safeTransferFrom(msg.sender, address(this), id, amountNFT, \"\");\n        lockedTransfert=true;\n\n        uint256 price = nftPriceUnitById[id].mul(amountNFT);\n        withdrawByAddress[msg.sender]=withdrawByAddress[msg.sender].add(price);\n\n        emit EventResellCollectible(msg.sender, id,amountNFT);\n    }\n\n    //customer withdrawal \n    function withdraw() public nonReentrant{\n        require(withdrawByAddress[msg.sender]>0,\"NFTIMABLE:Nothing to refund\");\n        require(address(this).balance>withdrawByAddress[msg.sender],\"NFTIMABLE:Not enought amount to withdraw\");\n\n        uint256 amountToWithdraw=withdrawByAddress[msg.sender];\n        msg.sender.transfer(amountToWithdraw);\n\n        withdrawByAddress[msg.sender]=0;\n\n        Eventwithdrawal(msg.sender,amountToWithdraw);\n    }\n\n    //transfert eth from contrat to address\n    function transferTo(address payable addressToTransfer, uint256 amountToWithdraw) public onlyOwner nonReentrant (){\n        require(address(this).balance>amountToWithdraw,\"NFTIMABLE:Not enought amount to transfertTo\");\n        addressToTransfer.transfer(amountToWithdraw);\n        emit EventTransferTo(addressToTransfer, amountToWithdraw);\n    }\n\n     //payable obligation\n    receive() external payable {\n    }\n}",
  "sourcePath": "/data/workspace_solidity/nftimable-smart-contract/contracts/NFTimableContract.sol",
  "compiler": {
    "name": "solc",
    "version": "0.6.11+commit.5ef660b1.Linux.g++"
  },
  "schemaVersion": "3.3.2",
  "updatedAt": "2021-01-07T14:08:34.263Z",
  "networkType": "ethereum",
  "devdoc": {
    "kind": "dev",
    "methods": {
      "balanceOf(address,uint256)": {
        "details": "See {IERC1155-balanceOf}. Requirements: - `account` cannot be the zero address."
      },
      "balanceOfBatch(address[],uint256[])": {
        "details": "See {IERC1155-balanceOfBatch}. Requirements: - `accounts` and `ids` must have the same length."
      },
      "createCollectible(uint256,uint256,uint256)": {
        "details": "Create NFT with id and amount"
      },
      "isApprovedForAll(address,address)": {
        "details": "See {IERC1155-isApprovedForAll}. Allows only transfers to or from OwnerNFT All transfers are managed by NFTimableContract with the attribute lockedTransfert"
      },
      "owner()": {
        "details": "Returns the address of the current owner."
      },
      "renounceOwnership()": {
        "details": "Leaves the contract without owner. It will not be possible to call `onlyOwner` functions anymore. Can only be called by the current owner. NOTE: Renouncing ownership will leave the contract without an owner, thereby removing any functionality that is only available to the owner."
      },
      "safeBatchTransferFrom(address,address,uint256[],uint256[],bytes)": {
        "details": "See {IERC1155-safeBatchTransferFrom}."
      },
      "safeTransferFrom(address,address,uint256,uint256,bytes)": {
        "details": "See {IERC1155-safeTransferFrom}."
      },
      "setApprovalForAll(address,bool)": {
        "details": "See {IERC1155-setApprovalForAll}."
      },
      "supportsInterface(bytes4)": {
        "details": "See {IERC165-supportsInterface}. Time complexity O(1), guaranteed to always use less than 30 000 gas."
      },
      "transferOwnership(address)": {
        "details": "Transfers ownership of the contract to a new account (`newOwner`). Can only be called by the current owner."
      },
      "uri(uint256)": {
        "details": "See {IERC1155MetadataURI-uri}. This implementation returns the same URI for *all* token types. It relies on the token type ID substitution mechanism https://eips.ethereum.org/EIPS/eip-1155#metadata[defined in the EIP]. Clients calling this function must replace the `\\{id\\}` substring with the actual token type ID."
      }
    },
    "version": 1
  },
  "userdoc": {
    "kind": "user",
    "methods": {
      "buy(uint256,uint256)": {
        "notice": "Buy collectible "
      }
    },
    "version": 1
  }
}